:020000040800F2
:100000000000032025280008A1210008A9210008DC
:10001000B1210008B9210008C1210008000000003A
:10002000000000000000000000000000C9210008DE
:10003000D721000800000000E5210008F321000896
:10004000752800087528000875280008752800081C
:10005000752800087528000875280008752800080C
:1000600075280008752800087528000875280008FC
:100070007528000875280008012200087528000866
:1000800075280008752800087528000875280008DC
:1000900075280008752800087528000875280008CC
:1000A00075280008752800087528000875280008BC
:1000B00075280008752800087528000875280008AC
:1000C000752800087528000875280008752800089C
:1000D0007528000875280008752800083D220008CA
:1000E000752800087528000875280008752800087C
:1000F000752800087528000875280008752800086C
:10010000752800087528000875280008752800085B
:10011000752800087528000875280008752800084B
:1001200015220008752800082922000875280008F3
:10013000752800087528000875280008752800082B
:10014000752800087528000875280008752800081B
:10015000752800087528000875280008752800080B
:1001600075280008752800087528000875280008FB
:100170007528000875280008752800080000000090
:1001800075280008752800087528000875280008DB
:1001900075280008752800087528000875280008CB
:0C01A00075280008752800087528000864
:1001B00010B5054C237833B9044B13B10448AFF3A1
:1001C00000800123237010BDF80100200000000012
:1001D000E0C8000808B5034B1BB103490348AFF35F
:1001E000008008BD00000000FC010020E0C80008FD
:1001F00001F0FF01102A2BDB10F0070F08D010F8D8
:10020000013B013A8B422DD010F0070F42B3F6D1DB
:10021000F0B441EA012141EA014122F007047FF0F4
:1002200000070023F0E80256083C85EA010586EA4B
:10023000010685FA47F5A3FA87F586FA47F6A5FA87
:1002400087F68EB9EED1F0BC01F0FF0102F0070293
:1002500032B110F8013B013A83EA010313B1F8D13E
:100260000020704701387047002D06BF354603381F
:10027000073815F0010F07D1013015F4807F02BF58
:10028000013015F4C03F0130F0BC0138704700BFA9
:10029000034613F8012B002AFBD1181A01387047C6
:1002A00081F0004102E000BF83F0004330B54FEA27
:1002B00041044FEA430594EA050F08BF90EA020F94
:1002C0001FBF54EA000C55EA020C7FEA645C7FEA27
:1002D000655C00F0E2804FEA5454D4EB5555B8BF4A
:1002E0006D420CDD2C4480EA020281EA030382EABB
:1002F000000083EA010180EA020281EA0303362D4D
:1003000088BF30BD11F0004F4FEA01314FF4801C1F
:100310004CEA113102D0404261EB410113F0004F31
:100320004FEA03334CEA133302D0524263EB4303E8
:1003300094EA050F00F0A780A4F10104D5F1200E86
:100340000DDB02FA0EFC22FA05F2801841F10001E1
:1003500003FA0EF2801843FA05F359410EE0A5F1B5
:1003600020050EF1200E012A03FA0EFC28BF4CF0E6
:10037000020C43FA05F3C01851EBE37101F000459C
:1003800007D54FF0000EDCF1000C7EEB00006EEBA9
:100390000101B1F5801F1BD3B1F5001F0CD3490833
:1003A0005FEA30004FEA3C0C04F101044FEA44528A
:1003B00012F5800F80F09A80BCF1004F08BF5FEA11
:1003C000500C50F1000041EB045141EA050130BDF1
:1003D0005FEA4C0C404141EB0101013C28BFB1F503
:1003E000801FE9D291F0000F04BF01460020B1FA4E
:1003F00081F308BF2033A3F10B03B3F120020CDA21
:100400000C3208DD02F1140CC2F10C0201FA0CF0FE
:1004100021FA02F10CE002F11402D8BFC2F1200C63
:1004200001FA02F120FA0CFCDCBF41EA0C01904019
:10043000E41AA2BF01EB0451294330BD6FEA040462
:100440001F3C1CDA0C340EDC04F11404C4F120024D
:1004500020FA04F001FA02F340EA030021FA04F35F
:1004600045EA030130BDC4F10C04C4F1200220FAB6
:1004700002F001FA04F340EA0300294630BD21FAF4
:1004800004F0294630BD94F0000F83F4801306BFBA
:1004900081F480110134013D4EE77FEA645C18BFAE
:1004A0007FEA655C29D094EA050F08BF90EA020F45
:1004B00005D054EA000C04BF1946104630BD91EA3D
:1004C000030F1EBF0021002030BD5FEA545C05D140
:1004D0004000494128BF41F0004130BD14F580047F
:1004E0003CBF01F5801130BD01F0004545F0FE41F3
:1004F00041F470014FF0000030BD7FEA645C1ABF28
:10050000194610467FEA655C1CBF0B46024650EA5E
:10051000013406BF52EA033591EA030F41F400218A
:1005200030BD00BF90F0000F04BF0021704730B510
:100530004FF4806404F132044FF000054FF00001E5
:1005400050E700BF90F0000F04BF0021704730B5A6
:100550004FF4806404F1320410F0004548BF40427B
:100560004FF000013EE700BF42004FEAE2014FEAD0
:1005700031014FEA02701FBF12F07F4393F07F4FAB
:1005800081F06051704732F07F4208BF704793F0AE
:100590007F4F04BF41F40021704730B54FF46074C1
:1005A00001F0004521F000411CE700BF50EA0102C4
:1005B00008BF704730B54FF000050AE050EA01026D
:1005C00008BF704730B511F0004502D5404261EBDD
:1005D00041014FF4806404F132045FEA915C3FF41E
:1005E000D8AE4FF003025FEADC0C18BF03325FEABB
:1005F000DC0C18BF033202EBDC02C2F1200300FA6C
:1006000003FC20FA02F001FA03FE40EA0E0021FA90
:1006100002F11444BDE600BF70B54FF0FF0C4CF47E
:10062000E06C1CEA11541DBF1CEA135594EA0C0F30
:1006300095EA0C0F00F0DEF82C4481EA030621EA6B
:100640004C5123EA4C5350EA013518BF52EA0335A6
:1006500041F4801143F4801338D0A0FB02CE4FF058
:100660000005E1FB02E506F00042E0FB03E54FF088
:100670000006E1FB03569CF0000F18BF4EF0010E80
:10068000A4F1FF04B6F5007F64F5407404D25FEA7C
:100690004E0E6D4146EB060642EAC62141EA55512F
:1006A0004FEAC52040EA5E504FEACE2EB4F1FD0C71
:1006B00088BFBCF5E06F1ED8BEF1004F08BF5FEAEF
:1006C000500E50F1000041EB045170BD06F00046A1
:1006D00046EA010140EA020081EA0301B4EB5C044E
:1006E000C2BFD4EB0C0541EA045170BD41F4801146
:1006F0004FF0000E013C00F3AB8014F1360FDEBF6B
:10070000002001F0004170BDC4F10004203C35DA46
:100710000C341BDC04F11404C4F1200500FA05F3C9
:1007200020FA04F001FA05F240EA020001F000426A
:1007300021F0004110EBD37021FA04F642EB0601E0
:100740005EEA430E08BF20EAD37070BDC4F10C040A
:10075000C4F1200500FA04F320FA05F001FA04F2CE
:1007600040EA020001F0004110EBD37041F10001BA
:100770005EEA430E08BF20EAD37070BDC4F12005C5
:1007800000FA05F24EEA020E20FA04F301FA05F22D
:1007900043EA020321FA04F001F0004121FA04F2D5
:1007A00020EA020000EBD3705EEA430E08BF20EAA5
:1007B000D37070BD94F0000F0FD101F000464000DF
:1007C00041EB010111F4801F08BF013CF7D041EA61
:1007D000060195F0000F18BF704703F00046520065
:1007E00043EB030313F4801F08BF013DF7D043EA36
:1007F0000603704794EA0C0F0CEA135518BF95EAEC
:100800000C0F0CD050EA410618BF52EA4306D1D172
:1008100081EA030101F000414FF0000070BD50EA91
:10082000410606BF1046194652EA430619D094EA1B
:100830000C0F02D150EA013613D195EA0C0F05D105
:1008400052EA03361CBF104619460AD181EA030159
:1008500001F0004141F0FE4141F470014FF0000011
:1008600070BD41F0FE4141F4780170BD70B54FF0AC
:10087000FF0C4CF4E06C1CEA11541DBF1CEA13552C
:1008800094EA0C0F95EA0C0F00F0A7F8A4EB05040E
:1008900081EA030E52EA03354FEA013100F0888005
:1008A0004FEA03334FF0805545EA131343EA1263CE
:1008B0004FEA022245EA111545EA10654FEA002683
:1008C0000EF000419D4208BF964244F1FD0404F53C
:1008D000407402D25B084FEA3202B61A65EB030598
:1008E0005B084FEA32024FF480104FF4002CB6EB55
:1008F000020E75EB030E22BFB61A754640EA0C00D5
:100900005B084FEA3202B6EB020E75EB030E22BF14
:10091000B61A754640EA5C005B084FEA3202B6EB55
:10092000020E75EB030E22BFB61A754640EA9C0014
:100930005B084FEA3202B6EB020E75EB030E22BFE4
:10094000B61A754640EADC0055EA060E18D04FEAA2
:10095000051545EA16754FEA06164FEAC30343EA42
:1009600052734FEAC2025FEA1C1CC0D111F4801F0F
:100970000BD141EA00014FF000004FF0004CB6E708
:1009800011F4801F04BF01430020B4F1FD0C88BFA7
:10099000BCF5E06F3FF6AFAEB5EB030C04BFB6EBB2
:1009A000020C5FEA500C50F1000041EB045170BDA5
:1009B0000EF0004E4EEA113114EB5C04C2BFD4EBD2
:1009C0000C0541EA045170BD41F480114FF0000E56
:1009D000013C90E645EA060E8DE60CEA135594EAD2
:1009E0000C0F08BF95EA0C0F3FF43BAF94EA0C0FD5
:1009F0000AD150EA01347FF434AF95EA0C0F7FF44A
:100A000025AF104619462CE795EA0C0F06D152EA9D
:100A100003353FF4FDAE1046194622E750EA410681
:100A200018BF52EA43067FF4C5AE50EA41047FF492
:100A30000DAF52EA43057FF4EBAE12E74FF0FF3CF7
:100A400006E000BF4FF0010C02E000BF4FF0010CC8
:100A50004DF804CD4FEA410C7FEA6C5C4FEA430C41
:100A600018BF7FEA6C5C1BD001B050EA410C0CBF90
:100A700052EA430C91EA030F02BF90EA020F0020F2
:100A8000704710F1000F91EA030F58BF994208BF59
:100A900090422CBFD8176FEAE37040F00100704716
:100AA0004FEA410C7FEA6C5C02D150EA013C07D16D
:100AB0004FEA430C7FEA6C5CD6D152EA033CD3D0B8
:100AC0005DF8040B704700BF8446104662468C46B2
:100AD0001946634600E000BF01B5FFF7B7FF0028E5
:100AE00048BF10F1000F01BD4DF808EDFFF7F4FF0E
:100AF0000CBF012000205DF808FB00BF4DF808ED99
:100B0000FFF7EAFF34BF012000205DF808FB00BFBB
:100B10004DF808EDFFF7E0FF94BF012000205DF8DD
:100B200008FB00BF4DF808EDFFF7CEFF94BF012092
:100B300000205DF808FB00BF4DF808EDFFF7C4FF8B
:100B400034BF012000205DF808FB00BF4FEA410CD4
:100B50007FEA6C5C02D150EA013C0AD14FEA430CB7
:100B60007FEA6C5C02D152EA033C02D14FF00000F4
:100B700070474FF0010070474FEA410212F5001232
:100B800015D211D56FF47873B3EB625212D94FEAD4
:100B9000C12343F0004343EA505311F0004F23FABE
:100BA00002F018BF404270474FF00000704750EA13
:100BB000013005D111F0004008BF6FF000407047D0
:100BC0004FF00000704700BF4A0011D212F500122A
:100BD00011D20DD56FF47873B3EB62520ED44FEA95
:100BE000C12343F0004343EA505323FA02F0704715
:100BF0004FF00000704750EA013002D14FF0FF3053
:100C000070474FF0000070474FEA4102B2F1E043F5
:100C100024BFB3F5001CDCF1FE5C0DD901F0004CE3
:100C20004FEAC0024CEA5070B2F1004F40EB830033
:100C300008BF20F00100704711F0804F21D113F15F
:100C40003872BCBF01F00040704741F480114FEA98
:100C50005252C2F11802C2F1200C10FA0CF320FA21
:100C600002F018BF40F001004FEAC1234FEAD3233E
:100C700003FA0CFC40EA0C0023FA02F34FEA4303A8
:100C8000CCE77FEA625307D150EA01331EBF4FF031
:100C9000FE4040F44000704701F0004040F0FE404C
:100CA00040F40000704700BF53B94AB9002908BF9B
:100CB00000281CBF4FF0FF314FF0FF3000F006BBA3
:100CC000ADF1080C6DE904CE00F0A2F9DDF804E006
:100CD000DDE9022304B0704760EE016A20EEA16AEC
:100CE00020EE215A76EEC67A61EE205AF4EE677A4B
:100CF000F1EE10FA35EE257A04D6B0EE670AF0EE82
:100D0000470A7047B4EE477AF1EE10FAF5D79FED37
:100D1000A14AF0EEC04AF4EE444AF1EE10FAF0EEC9
:100D2000E03A00F3A080F4EE443AF1EE10FA00F35A
:100D30009A800023DFED974AB0EEC14AB4EE644AD0
:100D4000F1EE10FAF0EEE13A48DCF4EE643AF1EE3E
:100D500010FA43DC9BBBF0EEE66AF4EE646AF1EE57
:100D600010FA14DCB0EEC66AB4EE646AF1EE10FA62
:100D70000DDCB0EEC55AB4EE645AF1EE10FA06DCA2
:100D8000F0EEE55AF4EE645AF1EE10FAB5DDB4EE89
:100D9000400AF1EE10FA80F1F080F4EE600AF1EE14
:100DA00010FA80F1DD80B4EE411AF1EE10FA80F114
:100DB000CA80F4EE611AF1EE10FA80F1B78061EEAC
:100DC000E07A60EE810AE0EE017AE0EE210A9FED22
:100DD000727A67EE877A20EE877A8EE7DFED6D7A9A
:100DE0009FED6C7AB4EE674AF1EE10FACCBF0123A6
:100DF000002307EE903A11EE103AF8EEE77A002B56
:100E0000F0EEE77AF4EE473AB8BFF1EE677AF1EE2A
:100E100010FACCBF01230023B0EE671A07EE903A18
:100E200011EE903AF8EEE77A002BF0EEE77AB4EEA6
:100E3000400AB8BFF1EE677AF1EE10FAF0EE671AE9
:100E40005AD6F4EE600AF1EE10FAB8D710EE903AE6
:100E50009FED527ADFED527A002BB4BFF0EE670AB5
:100E6000F0EE470AABE79FED4B4AF4EE444AF1EE51
:100E700010FACCBF0123002304EE903A9FED454ABF
:100E800010EE103AF8EEE44A002BF0EEE44AF4EEED
:100E9000443AB8BFF1EE644AF1EE10FACCBF012338
:100EA0000023B0EE640A04EE903A10EE903AF8EEA9
:100EB000E44A002BF0EEE44AB4EE411AB8BFF1EE7A
:100EC000644AF1EE10FAF0EE640A22D6F4EE611AEA
:100ED000F1EE10FA78BF0123FFF52CAF11EE903A36
:100EE0009FED2E4ADFED2E4A002BB4BFF0EE641AC0
:100EF000F0EE441A01231DE710EE103A9FED277A19
:100F0000DFED277A002BB4BFB0EE670AB0EE470AD8
:100F100097E711EE103A9FED214ADFED214A002BB1
:100F2000B4BFB0EE641AB0EE441ACFE711EE903AB7
:100F30009FED1A7ADFED1A7A002BB4BFF0EE671A34
:100F4000F0EE471A3BE711EE103A9FED147ADFED11
:100F5000147A002BB4BFB0EE671AB0EE471A28E738
:100F600010EE903A9FED0D7ADFED0D7A002BB4BFB5
:100F7000F0EE670AF0EE470A15E710EE103A9FED23
:100F8000077ADFED077A002BB4BFB0EE670AB0EE48
:100F9000470A02E7FFFF7F7F0000807F000000001C
:100FA0000000008038B50022002304460D46FFF7FC
:100FB000A5FD28B920462946BDE8384000F00AB80A
:100FC000204605F1004100F005F8404261EB410187
:100FD00038BD00BFD0B50C4B002206460F46FFF7C8
:100FE0001BFBFFF7F1FD0446FFF79CFA074B0022BD
:100FF000FFF712FB02460B4630463946FFF754F91D
:10100000FFF7E2FD2146D0BD0000F03D0000F041B9
:101010002DE9F047089D0C46002B4ED194468C4597
:101020008646B2FA82F262D94AB1C2F120039140F7
:1010300020FA03F30CFA02FC194300FA02FE4FEA0D
:101040001C471FFA8CF6B1FBF7F44FEA1E4307FB6F
:10105000141143EA014304FB06F199420AD91CEB3F
:10106000030304F1FF3080F01281994240F20F81B6
:10107000023C6344591A1FFA8EF3B1FBF7F007FBE9
:10108000101143EA014300FB06F69E420AD91CEB0D
:10109000030300F1FF3180F0FC809E4240F2F980B2
:1010A000634402389B1B40EA044000211DB1D34039
:1010B0000022C5E90032BDE8F0878B4205D90DB1A9
:1010C000C5E9000100210846F5E7B3FA83F10029DC
:1010D00046D1A34202D39042C0F0F080861A64EB5E
:1010E00003030120002DE6D0C5E90063E3E7002AF1
:1010F00040F09080A1EB0C044FEA1C481FFA8CF7DB
:101100000121B4FBF8F64FEA1E4308FB164443EAFC
:10111000044307FB06F0984208D91CEB030306F1D1
:10112000FF3402D2984200F2CD8026461C1A1FFAE4
:101130008EF3B4FBF8F008FB104443EA044300FBD1
:1011400007F79F4208D91CEB030300F1FF3402D2DA
:101150009F4200F2B0802046DB1B40EA0640A5E734
:10116000C1F120068B4022FA06F71F4320FA06FC45
:1011700004FA01F343EA0C03F44000FA01F8380CD6
:101180004FEA1349B4FBF0FE1FFA87FC00FB1E4434
:1011900049EA04440EFB0CF9A14502FA01F20AD90E
:1011A0003C190EF1FF3A80F08480A14540F2818025
:1011B000AEF1020E3C44A4EB09041FFA83F9B4FB20
:1011C000F0F300FB134449EA044403FB0CFCA44580
:1011D00007D93C1903F1FF3067D2A44565D9023B1A
:1011E0003C4443EA0E40A0FB0293A4EB0C049C4257
:1011F000CE469C4651D34ED055B1B8EB0E0364EBAE
:101200000C0404FA06F6CB401E43CC40C5E900644A
:10121000002150E7C2F1200320FA03F10CFA02FC8E
:1012200024FA03F394400C434FEA1C4800FA02FEF0
:101230001FFA8CF7B3FBF8F008FB1031230C43EADC
:10124000014300FB07F1994208D91CEB030300F1AD
:10125000FF362CD299422AD9023863445B1AA4B2D1
:10126000B3FBF8F108FB113344EA034401FB07F335
:10127000A34208D91CEB040401F1FF3613D2A342A8
:1012800011D902396444E41A41EA004139E70446BD
:10129000F0E6084606E7C845AED2B9EB020E63EBAE
:1012A000070C0138A8E73146EDE7034699E73046D9
:1012B000D4E7D6467FE7634402384DE70646234627
:1012C00008460FE7023E634430E700BF704700BFA7
:1012D00080B489B000AF786039600023FB610023DF
:1012E000BB613CE0BA69FB699A421BDABB69DB006F
:1012F0007A6813441A68FA605B683B61FB69DB003B
:101300007A681A44BB69DB0079680B44116852683B
:1013100019605A60FB69DB007A681344FA681A6046
:101320003A695A603B68DA0F13445B107B6108E04E
:10133000FA697B69D31AFB617B69DA0F13445B108E
:101340007B617B69002B03DDFA697B699A42EFDAE6
:10135000FA697B691344FB61BB690133BB61BA69FC
:101360003B689A42BEDB00BF00BF2437BD465DF834
:10137000047B7047000000002DE9B04396B000AF39
:101380007860396039687868FFF7A2FF0223FB6450
:10139000DBE0FB6CDA0F13445B103B64F86CFFF787
:1013A000D1F804460D4622462B464FF000004FF080
:1013B0000041FFF75BFA02460B46904699462246EB
:1013C0002B4667A1D1E90001FFF750FA02460B4610
:1013D0004046494641EC160B43EC172BB0EE460A4B
:1013E000F0EE660AB0EE471AF0EE671A09F01FFB3E
:1013F000B0EE406AF0EE606AB0EE417AF0EE617AEB
:1014000053EC162B55EC174B10461946FFF7FCFB17
:1014100003467B6520462946FFF7F6FB03463B65FE
:101420003B6D7A6DBA63FB630023BB6485E04FF0CC
:101430007E533B634FF000037B6300237B644FF0DC
:101440000003BB614FF07E53FB616EE0BA6C7B6CB6
:101450001A443B6C1344DB007A681344D3ED007AE2
:1014600093ED017AF0EE471AB0EE671AD7ED060A4F
:1014700097ED070AFFF730FC87ED0A0AC7ED0B0A64
:10148000BB6A7B61FB6A3B61BA6C7B6C1344DB001B
:101490007A6813441A68FA605B68BB60BB68FA68D4
:1014A0003A627B62BA6C7B6C1344DB007A6813444B
:1014B00097ED037AD7ED057A37EE277AD7ED026AF2
:1014C000D7ED047A76EEA77A83ED007AC3ED017A40
:1014D000BA6C7B6C1A443B6C1344DB007A6813448F
:1014E00097ED037AD7ED057A37EE677AD7ED026A82
:1014F000D7ED047A76EEE77A83ED007AC3ED017AD0
:10150000D7ED141A97ED151AD7ED060A97ED070ACD
:10151000FFF7E2FB87ED0C0AC7ED0D0A3B6BFB61A1
:101520007B6BBB617B6C01337B647A6C3B6C9A4256
:101530008CDBBA6CFB6C1344BB64BA6C3B689A429C
:10154000FFF675AFFB6C5B00FB64FA6C3B689A427C
:101550007FF71FAF00BF00BF5837BD46BDE8B0835F
:10156000182D4454FB2119C080B58CB000AFF86031
:10157000B9607A603B60C84BBB613B68DA0F1344CB
:101580005B107B61BB68FB627B68BB62FB687B6254
:1015900000233B622AE17B6A9A1C7A621B8807EE71
:1015A000903AB8EEE77AD7ED067A67EE277A17EE2B
:1015B000900AFEF7D9FF4FF000024FF00003FEF74C
:1015C00075FE02460B4610461946FFF71DFB014605
:1015D000FB6A03F10802FA624FF0000219605A60D8
:1015E0007B6A9A1C7A621B8807EE903AB8EEE77A1B
:1015F000D7ED067A67EE277A17EE900AFEF7B4FF6A
:101600004FF000024FF00003FEF750FE02460B467B
:1016100010461946FFF7F8FA0146BB6A03F10802C3
:10162000BA624FF0000219605A607B6A9A1C7A62B3
:101630001B8807EE903AB8EEE77AD7ED067A67EEA8
:10164000277A17EE900AFEF78FFF4FF000024FF057
:101650000003FEF72BFE02460B4610461946FFF725
:10166000D3FA0146FB6A03F10802FA624FF0000266
:1016700019605A607B6A9A1C7A621B8807EE903A5E
:10168000B8EEE77AD7ED067A67EE277A17EE900A7A
:10169000FEF76AFF4FF000024FF00003FEF706FE70
:1016A00002460B4610461946FFF7AEFA0146BB6AE2
:1016B00003F10802BA624FF0000219605A607B6AB7
:1016C0009A1C7A621B8807EE903AB8EEE77AD7ED5B
:1016D000067A67EE277A17EE900AFEF745FF4FF07D
:1016E00000024FF00003FEF7E1FD02460B461046F4
:1016F0001946FFF789FA0146FB6A03F10802FA620C
:101700004FF0000219605A607B6A9A1C7A621B884B
:1017100007EE903AB8EEE77AD7ED067A67EE277AC9
:1017200017EE900AFEF720FF4FF000024FF0000383
:10173000FEF7BCFD02460B4610461946FFF764FA59
:101740000146BB6A03F10802BA624FF00002196059
:101750005A607B6A9A1C7A621B8807EE903AB8EE50
:10176000E77AD7ED067A67EE277A17EE900AFEF74A
:10177000FBFE4FF000024FF00003FEF797FD02461C
:101780000B4610461946FFF73FFA0146FB6A03F184
:101790000802FA624FF0000219605A607B6A9A1CD4
:1017A0007A621B8807EE903AB8EEE77AD7ED067AB0
:1017B00067EE277A17EE900AFEF7D6FE4FF000028A
:1017C0004FF00003FEF772FD02460B461046194625
:1017D000FFF71AFA0146BB6A03F10802BA624FF03A
:1017E000000219605A603B6A04333B627B69033B29
:1017F0003A6A9A42FFF6CFAE7B6923F00303FB619E
:1018000039E0FB699B00FA6813441B8807EE903AA5
:10181000B8EEE77AD7ED067A67EE277A9FED1F7A62
:1018200077EE877AFB69DB00BA68134417EE901AEB
:101830004FF0000219605A60FB699B000233FA689E
:1018400013441B8807EE903AB8EEE77AD7ED067A94
:1018500067EE277A9FED117A77EE877AFB69DB00D6
:101860007A68134417EE901A4FF0000219605A601C
:10187000FB690133FB61FA697B699A42C1DB7969D3
:10188000B868FFF779FD79697868FFF775FD00BFE3
:101890003037BD4680BD00BF6740533A00000000AE
:1018A000F0B587B000AFF860B9607A603B604FF088
:1018B00000037B617B6B4FF000021A6000233B61E9
:1018C0008BE03B69DB00FA6813441A685E681346D4
:1018D0001846FEF749FE04460D4633461846FEF705
:1018E00043FE02460B462046294641EC160B43ECCC
:1018F000172BB0EE460AF0EE660AB0EE471AF0EE8D
:10190000671A09F06BF851EC100B3B699B007A6881
:10191000D418FFF779F9034623603B69DB00BA6806
:1019200013441A685E6813461846FEF71DFE044607
:101930000D4633461846FEF717FE02460B46204674
:10194000294641EC160B43EC172BB0EE460AF0EE9D
:10195000660AB0EE471AF0EE671A09F03FF851EC4C
:10196000100B3B699B003A68D418FFF74DF903460A
:1019700023603B69002B06D13B699B007A681344C6
:101980004FF000021A607B6B93ED007A3B699B007D
:101990007A681344D3ED007A77EE277A7B6BC3ED38
:1019A000007A3B699B007A681344D3ED007A97ED87
:1019B000057AB4EEE77AF1EE10FA0BD53B69002B0D
:1019C00008D03B699B007A6813441B687B613B6BC2
:1019D0003A691A603B6901333B613A69BB6B9A42D1
:1019E000FFF66FAF00BF00BF1C37BD46F0BD000063
:1019F00080B582B000AF00F03FFF00F0E5FC00F0E2
:101A000041FE00F0D3FE00F04FFD00F0EFFD00F0CE
:101A10008BFD314802F0F0FF0346002B01D000F0AF
:101A2000FBFE2E4B1B684FF4006219462C4800F059
:101A3000FDFF0346002B01D000F0EEFE294B1B6892
:101A4000002BFBD0284B1B68002BF7D072B600BFD1
:101A5000244B00221A60254B1B687B601F4B1B68C0
:101A6000224A13601D4A7B681360214B1B68002BC0
:101A70000CBF01230023DBB21A461D4B1A6062B66D
:101A800000BF1A4B1B68184600F03AF814230422D2
:101A90001849194803F0E3FA4FF0FF334FF480522E
:101AA0001649154803F0DBFA104B1B684FF4006130
:101AB000184600F0E1F8012000F050FF074B1B68CA
:101AC0004FF400621946064800F0B0FF0346002BB1
:101AD000B4D000F0A1FEB1E77C820020000000201D
:101AE00034820020288200200C0000200400002006
:101AF0002C82002008000020C482002028620020E0
:101B0000B0B586B004AF78604FF400634C4A4D49DD
:101B10007868FFF729FD4FF4806302934A4B0193E5
:101B20004A4B00934A4B4B4A45494648FFF7B8FE9B
:101B3000454B93ED007ADFED486AC7EE267A474BB6
:101B4000C3ED007A414B1B68424A9B0013441B685B
:101B50001846FEF709FD02460B4643EC102B08F031
:101B6000FFFE51EC100B4FF000023D4BFEF754FD11
:101B700002460B4614461D46384B1B681846FEF7B6
:101B8000F3FC02460B4643EC102B08F0E9FE51EC47
:101B9000100B4FF00002324BFEF73EFD02460B46A3
:101BA000104619464FF000022E4BFEF77FFB02460F
:101BB0000B4620462946FEF7BFFF0346002B00D107
:101BC00035E0224B1B6801331846FEF7BBFC1AA315
:101BD000D3E90023FEF720FD02460B4610461946C6
:101BE0004FF00002204BFEF717FD02460B46104651
:101BF00019464FF000021D4BFEF738FE02460B4619
:101C000010461946FFF700F80346194A1360184BAF
:101C1000D3ED007AB2EE047AF4EEC77AF1EE10FA60
:101C200000DC04E0134B1B680133124A136000BF51
:101C30000837BD46B0BD00BFCDCCCCCCCCCC0C4021
:101C400028420020282200201822002014220020F0
:101C50002872002028620020000080441C220020FE
:101C60000000344000003E4000003F40000064405F
:101C7000202200202422002080B582B000AF7860AE
:101C800039600C4B00221A60272001F09AFB3B6858
:101C90009BB25B009BB21A467968074803F072FA60
:101CA0000346002B01D000F0B7FD00BF0837BD464A
:101CB00080BD00BF0C000020C482002080B483B02F
:101CC00000AF78607B681B68054A934202D1054BE0
:101CD00001221A6000BF0C37BD465DF8047B7047D7
:101CE000002001402882002080B483B000AF7860DB
:101CF0007B681B68054A934202D1054B01221A609A
:101D000000BF0C37BD465DF8047B704700480040BB
:101D10000C00002080B582B000AF00237B60184B20
:101D20005B6C174A43F480435364154B5B6C03F4BC
:101D300080437B607B6800233B60114B1B6C104A27
:101D400043F0805313640E4B1B6C03F080533B60D5
:101D50003B68002201216FF0040001F016FB002215
:101D600001216FF0030001F010FB002201216FF050
:101D7000010001F00AFB00BF0837BD4680BD00BF6F
:101D80000038024080B58CB000AF786007F11C03CA
:101D900000221A605A609A60DA601A617B681B68D8
:101DA000674A93426AD10023BB61664B5B6C654A0C
:101DB00043F480735364634B5B6C03F48073BB61C7
:101DC000BB6900237B615F4B1B6B5E4A43F00103E1
:101DD00013635C4B1B6B03F001037B617B6908237E
:101DE000FB6103233B6200237B6207F11C0319465E
:101DF000554801F003FF4023FB6103233B620023AE
:101E00007B6207F11C0319464F4801F0F7FE4F4B68
:101E10004F4A1A604D4B00225A604C4B00229A6088
:101E20004A4B0022DA60494B4FF480621A61474BFB
:101E30004FF400625A61454B4FF400529A61434B94
:101E40000022DA61414B4FF480321A623F4B00228C
:101E50005A623E4BDB6943F010033C4AD3613B4876
:101E600001F0CAFA0346002B01D000F0D5FC7B68D4
:101E7000364A9A63354A7B6893635CE07B681B68EB
:101E8000344A934257D100233B612E4B5B6C2D4A61
:101E900043F4007353642B4B5B6C03F400733B619E
:101EA0003B690023FB60274B1B6B264A43F0010371
:101EB0001363244B1B6B03F00103FB60FB682023BF
:101EC000FB6103233B6200237B6207F11C0319467D
:101ED0001D4801F093FE204B204A1A601E4B4FF024
:101EE00000725A601C4B00229A601B4B0022DA6081
:101EF000194B4FF480621A61174B4FF400625A611C
:101F0000154B4FF400529A61134B0022DA61124BC9
:101F100000221A62104B00225A620F4801F06CFA3C
:101F20000346002B01D000F077FC7B680A4A9A63D5
:101F3000094A7B68936300BF3037BD4680BD00BF50
:101F400000200140003802400000024008830020C9
:101F50001064024000210140688300204064024078
:101F600080B58CB000AF786007F11C0300221A60C6
:101F70005A609A60DA601A617B681B68514A934222
:101F80003AD10023BB61504B1B6C4F4A43F40033E2
:101F900013644D4B1B6C03F40033BB61BB6900231E
:101FA0007B61494B1B6B484A43F001031363464B6B
:101FB0001B6B03F001037B617B6900233B61424B98
:101FC0001B6B414A43F0080313633F4B1B6B03F049
:101FD00008033B613B696023FB6102233B620023F2
:101FE0007B620323BB620723FB6207F11C031946D4
:101FF000364801F003FE61E07B681B68344A934277
:102000005CD10023FB60304B1B6C2F4A43F48023D0
:1020100013642D4B1B6C03F48023FB60FB680023CF
:10202000BB60294B1B6B284A43F008031363264B04
:102030001B6B03F00803BB60BB684FF44073FB618C
:1020400002233B6200237B620323BB620723FB6204
:1020500007F11C0319461D4801F0D0FD1D4B1E4A17
:102060001A601C4B4FF000625A601A4B40229A6073
:10207000184B0022DA60174B4FF480621A61154B3F
:102080004FF400525A61134B4FF400529A61114BB6
:102090000022DA610F4B00221A620E4B00225A62B4
:1020A0000C4801F0A9F90346002B01D000F0B4FB65
:1020B0007B68084A5A63074A7B68936300BF3037DE
:1020C000BD4680BD0044004000380240000C024084
:1020D00000480040C88300205860024080B487B0A8
:1020E00000AF78607B681B68294A93420ED10023B9
:1020F0007B61284B5B6C274A43F001035364254BFB
:102100005B6C03F001037B617B693AE07B681B68D1
:10211000B3F1804F0ED100233B611E4B1B6C1D4A57
:1021200043F0010313641B4B1B6C03F001033B6181
:102130003B6926E07B681B68174A93420ED1002357
:10214000FB60144B1B6C134A43F002031364114BE6
:102150001B6C03F00203FB60FB6812E07B681B68EA
:102160000E4A93420DD10023BB600A4B5B6C094AB7
:1021700043F002035364074B5B6C03F00203BB6044
:10218000BB6800BF1C37BD465DF8047B704700BFCD
:1021900000000140003802400004004000040140FB
:1021A00080B400AF00BFFDE780B400AF00BFFDE723
:1021B00080B400AF00BFFDE780B400AF00BFFDE713
:1021C00080B400AF00BFFDE780B400AF00BFBD46E4
:1021D0005DF8047B704780B400AF00BFBD465DF87A
:1021E000047B704780B400AF00BFBD465DF8047B40
:1021F000704780B500AF00F091FB00BF80BD0000CC
:1022000080B500AF024801F08FFA00BF80BD00BF6B
:10221000C883002080B500AF024801F085FA00BFF6
:1022200080BD00BF0883002080B500AF024801F0E8
:102230007BFA00BF80BD00BF6883002080B500AF7F
:10224000024803F01DF800BF80BD00BFC48200201B
:1022500080B400AF01231846BD465DF8047B70478B
:1022600080B582B000AF7860396004F0EFFF0346BC
:1022700016221A604FF0FF3318460837BD4680BD5E
:1022800080B582B000AF78604FF0FF317868FFF71B
:10229000E7FF00BFFDE780B586B000AFF860B9602A
:1022A0007A6000237B610AE0AFF300800146BB68DF
:1022B0005A1CBA60CAB21A707B6901337B617A69B1
:1022C0007B689A42F0DB7B6818461837BD4680BDB4
:1022D00080B483B000AF78604FF0FF3318460C37FE
:1022E000BD465DF8047B704780B483B000AF786072
:1022F00039603B684FF400525A60002318460C378F
:10230000BD465DF8047B704780B483B000AF786051
:10231000012318460C37BD465DF8047B704780B436
:1023200085B000AFF860B9607A60002318461437B2
:10233000BD465DF8047B704780B586B000AF78601D
:10234000144A154BD31A7B617B693B61134B1B68A5
:10235000002B02D1114B124A1A60104B1A687B688D
:1023600013443A699A4207D204F070FF03460C22E4
:102370001A604FF0FF3309E0084B1B68FB60074B06
:102380001A687B681344054A1360FB6818461837BF
:10239000BD4680BD00000320000400003082002004
:1023A0007885002080B400AF064BD3F88830054A0A
:1023B00043F47003C2F8883000BFBD465DF8047B6B
:1023C000704700BF00ED00E080B594B000AF07F1AA
:1023D000200330220021184604F0E5FE07F10C032B
:1023E00000221A605A609A60DA601A610023BB60AA
:1023F0002B4B1B6C2A4A43F080531364284B1B6CF5
:1024000003F08053BB60BB6800237B60254B1B68D7
:10241000244A43F440431360224B1B6803F44043B7
:102420007B607B6801233B624FF4A0237B62022325
:10243000BB634FF48003FB6304233B64A0237B64F2
:102440000223BB640723FB6407F12003184601F055
:10245000EBFD0346002B01D000F0DEF901F094FD06
:102460000346002B01D000F0D7F90F23FB600223B5
:102470003B6100237B614FF4A053BB614FF4805359
:10248000FB6107F10C030521184602F045F80346ED
:10249000002B01D000F0C0F900BF5037BD4680BD11
:1024A000003802400070004080B500AF114B124A66
:1024B0001A60104B4FF4E1225A600E4B00229A60D2
:1024C0000C4B0022DA600B4B00221A61094B0C22E4
:1024D0005A61084B00229A61064B0022DA610548D6
:1024E00002F070FD0346002B01D000F095F900BF0B
:1024F00080BD00BFC48200200048004080B584B089
:1025000000AFF860B9607A607B689AB24FF0FF3331
:10251000B968044802F0A3FD7B6818461037BD4631
:1025200080BD00BFC482002080B584B000AF3B46B0
:1025300000221A605A609A60DA602A4B2A4A1A60AE
:10254000284B4FF480325A60264B00229A60254B6C
:1025500001221A61234B00221A76224B002283F8B3
:102560002020204B4FF08052DA621E4B4FF0006269
:102570009A621C4B0022DA601A4B0222DA61194B74
:10258000002283F83020174B00225A61154800F0D2
:1025900009FA0346002B01D000F03EF903233B600B
:1025A00001237B600023BB603B4619460D4800F0C9
:1025B00061FB0346002B01D000F02EF906233B609F
:1025C00002237B600023BB603B461946054800F0B0
:1025D00051FB0346002B01D000F01EF900BF10375D
:1025E000BD4680BD348200200020014080B586B009
:1025F00000AF07F1080300221A605A609A60DA609F
:102600003B4600221A605A601C4B1D4A1A601B4B45
:102610004F225A60194B00229A60184B1F22DA6031
:10262000164B00221A61154B00229A61134802F0E2
:1026300093F90346002B01D000F0EEF84FF48053DD
:10264000BB6007F1080319460C4802F03DFA034647
:10265000002B01D000F0E0F820233B6000237B60DA
:102660003B461946054802F031FC0346002B01D0D9
:1026700000F0D2F800BF1837BD4680BD7C82002034
:102680000004004080B58CB000AF07F11C030022AD
:102690001A605A609A60DA601A610023BB613F4B8E
:1026A0001B6B3E4A43F0040313633C4B1B6B03F06C
:1026B0000403BB61BB6900237B61384B1B6B374A4A
:1026C00043F080031363354B1B6B03F080037B6186
:1026D0007B6900233B61314B1B6B304A43F00103A4
:1026E00013632E4B1B6B03F001033B613B6900231B
:1026F000FB602A4B1B6B294A43F002031363274BF1
:102700001B6B03F00203FB60FB680023BB60234BE1
:102710001B6B224A43F008031363204B1B6B03F02F
:102720000803BB60BB6800237B601C4B1B6B1B4A10
:1027300043F040031363194B1B6B03F040037B60B2
:102740007B68002244F28101154801F003FC00225D
:102750004021144801F0FEFB4FF40053FB614FF49D
:1027600088133B6200237B6207F11C0319460E4865
:1027700001F044FA44F28103FB6101233B62002330
:102780007B620023BB6207F11C031946044801F079
:1027900035FA00BF3037BD4680BD00BF003802406B
:1027A00000040240001802400008024080B582B0D8
:1027B00000AF00237B60174B1B6B164A43F40013DA
:1027C0001363144B1B6B03F400137B607B680023C3
:1027D0003B60104B1B6B0F4A43F4800313630D4B9C
:1027E0001B6B03F480033B603B680022012138200F
:1027F00000F0CBFD382000F0E4FD012203210E2083
:1028000000F0C3FD0E2000F0DCFD00BF0837BD4620
:1028100080BD00BF0038024080B400AF72B600BF78
:1028200000BFFDE7DFF834D00D480E490E4A002303
:1028300002E0D458C4500433C4188C42F9D30B4A74
:102840000B4C002301E013600432A242FBD3FFF7DC
:10285000A9FD04F001FDFFF7CBF87047000003204D
:1028600000000020F801002060CF0008F8010020DF
:1028700078850020FEE7000080B500AF0E4B1B6896
:102880000D4A43F4007313600B4B1B680A4A43F470
:1028900080631360084B1B68074A43F4807313601E
:1028A000032000F067FD002000F008F8FFF732FA7F
:1028B0000023184680BD00BF003C024080B582B0B6
:1028C00000AF7860124B1A68124B1B7819464FF410
:1028D0007A73B3FBF1F3B2FBF3F3184600F07FFD1C
:1028E0000346002B01D001230EE07B680F2B0AD892
:1028F000002279684FF0FF3000F047FD064A7B6800
:102900001360002300E0012318460837BD4680BD50
:1029100010000020180000201400002080B400AF38
:10292000064B1B781A46064B1B681344044A136077
:1029300000BFBD465DF8047B704700BF1800002053
:102940002884002080B400AF034B1B681846BD46A6
:102950005DF8047B704700BF2884002080B584B0F8
:1029600000AF7860FFF7EEFFB8607B68FB60FB6844
:10297000B3F1FF3F05D00A4B1B781A46FB6813449E
:10298000FB6000BFFFF7DEFF0246BB68D31AFA68A0
:102990009A42F7D800BF00BF1037BD4680BD00BFC8
:1029A0001800002080B584B000AF78600023FB736E
:1029B0007B68002B01D1012333E07B681B6C002B6B
:1029C00009D17868FFF7DEF97B6800225A647B68DA
:1029D000002283F83C207B681B6C03F01003002B63
:1029E00018D17B681B6C23F4885323F0020343F057
:1029F00002027B681A64786800F06EFA7B68002235
:102A00005A647B681B6C23F0030343F001027B686C
:102A10001A6401E00123FB737B68002283F83C20E9
:102A2000FB7B18461037BD4680BD000080B586B0E0
:102A300000AFF860B9607A6000233B61FB6893F8EF
:102A40003C30012B01D10223E9E0FB68012283F82D
:102A50003C20FB681B689B6803F00103012B18D026
:102A6000FB681B689A68FB681B6842F001029A6069
:102A70006D4B1B686D4AA2FB03239A0C13465B0047
:102A800013443B6102E03B69013B3B613B69002B26
:102A9000F9D1FB681B689B6803F48073B3F5807FF2
:102AA00007D1FB681B689A68FB681B6822F4807278
:102AB0009A60FB681B689B6803F00103012B40F0E0
:102AC000A180FB681B6C23F4E06323F0010343F453
:102AD0008072FB681A64FB681B685B6803F48063A0
:102AE000002B07D0FB681B6C23F4405343F4805247
:102AF000FB681A64FB681B6C03F48053B3F5805FBA
:102B000006D1FB685B6C23F00602FB685A6402E0A6
:102B1000FB6800225A64FB68002283F83C20444B87
:102B20007B61FB689B6B434ADA63FB689B6B424AA1
:102B30001A64FB689B6B414ADA64FB681B686FF0A0
:102B400022021A60FB681B685A68FB681B6842F027
:102B500080625A60FB681B689A68FB681B6842F4D5
:102B600080729A60FB68986BFB681B684C3319464F
:102B7000BA687B6800F0EEFC7B695B6803F01F03BA
:102B8000002B2AD1FB681B682D4A934215D0FB68A5
:102B90001B682C4A934205D1254B5B6803F01F0349
:102BA000002B0AD0FB681B68274A934236D1204B82
:102BB0005B6803F01003002B30D1FB681B689B6837
:102BC00003F04053002B29D1FB681B689A68FB680F
:102BD0001B6842F080429A6020E0FB681B68184A3C
:102BE00093421BD1FB681B689B6803F04053002B8A
:102BF00014D1FB681B689A68FB681B6842F080422E
:102C00009A600BE0FB681B6C43F01002FB681A64CF
:102C1000FB685B6C43F00102FB685A6400231846B2
:102C20001837BD4680BD00BF1000002083DE1B4367
:102C300000230140D13000088B310008A731000883
:102C400000200140002101400022014080B483B0F7
:102C500000AF786000BF0C37BD465DF8047B70475D
:102C600080B483B000AF786000BF0C37BD465DF81C
:102C7000047B704780B485B000AF78603960002372
:102C8000BB607B6893F83C30012B01D1022313E138
:102C90007B68012283F83C203B681B68092B25D9FF
:102CA0007B681B68D9683B681B689BB21A46134651
:102CB0005B0013441E3B072202FA03F3DA437B68EE
:102CC0001B680A40DA607B681B68D9683B689A68B1
:102CD0003B681B689BB2184603465B0003441E3BDF
:102CE0009A407B681B680A43DA6022E07B681B68B5
:102CF00019693B681B689BB21A4613465B00134474
:102D0000072202FA03F3DA437B681B680A401A6160
:102D10007B681B6819693B689A683B681B689BB2B3
:102D2000184603465B0003449A407B681B680A43CD
:102D30001A613B685B68062B24D87B681B68596B5B
:102D40003B685A6813469B001344053B1F2202FA56
:102D500003F3DA437B681B680A405A637B681B688D
:102D6000596B3B681B689BB218463B685A68134610
:102D70009B001344053B00FA03F27B681B680A437F
:102D80005A634CE03B685B680C2B24D87B681B685B
:102D9000196B3B685A6813469B001344233B1F2260
:102DA00002FA03F3DA437B681B680A401A637B6804
:102DB0001B68196B3B681B689BB218463B685A68D6
:102DC00013469B001344233B00FA03F27B681B6805
:102DD0000A431A6323E07B681B68D96A3B685A6818
:102DE00013469B001344413B1F2202FA03F3DA43CC
:102DF0007B681B680A40DA627B681B68D96A3B689B
:102E00001B689BB218463B685A6813469B001344E4
:102E1000413B00FA03F27B681B680A43DA62294BE4
:102E2000FB607B681B68284A93420FD13B681B6894
:102E3000122B0BD1FB685B6823F40002FB685A601D
:102E4000FB685B6843F48002FB685A607B681B6820
:102E50001D4A93422BD13B681B681C4A934203D006
:102E60003B681B68112B22D1FB685B6823F480024E
:102E7000FB685A60FB685B6843F40002FB685A60B9
:102E80003B681B68114A934211D1114B1B68114AD0
:102E9000A2FB03239A0C13469B0013445B00BB6008
:102EA00002E0BB68013BBB60BB68002BF9D17B68CB
:102EB000002283F83C20002318461437BD465DF8F5
:102EC000047B7047002301400020014012000010E5
:102ED0001000002083DE1B4380B485B000AF786013
:102EE000794BFB60FB685B6823F44032FB685A60F7
:102EF000FB685A687B685B681A43FB685A607B68AA
:102F00001B685A687B681B6822F480725A607B6871
:102F10001B6859687B681B691A027B681B680A4337
:102F20005A607B681B685A687B681B6822F0407295
:102F30005A607B681B6859687B689A687B681B6865
:102F40000A435A607B681B689A687B681B6822F496
:102F500000629A607B681B6899687B68DA687B68A6
:102F60001B680A439A607B689B6A584A934222D046
:102F70007B681B689A687B681B6822F070629A60A5
:102F80007B681B6899687B689A6A7B681B680A4340
:102F90009A607B681B689A687B681B6822F04052C5
:102FA0009A607B681B6899687B68DA6A7B681B6833
:102FB0000A439A600FE07B681B689A687B681B680D
:102FC00022F070629A607B681B689A687B681B6855
:102FD00022F040529A607B681B689A687B681B6885
:102FE00022F002029A607B681B6899687B681B7EEE
:102FF0005A007B681B680A439A607B6893F820300C
:10300000002B1BD07B681B685A687B681B6842F4E6
:1030100000625A607B681B685A687B681B6822F4F0
:1030200060425A607B681B6859687B685B6A013B39
:103030005A037B681B680A435A6007E07B681B6879
:103040005A687B681B6822F400625A607B681B68C0
:10305000DA6A7B681B6822F47002DA627B681B689C
:10306000D96A7B68DB69013B1A057B681B680A43E8
:10307000DA627B681B689A687B681B6822F40072BE
:103080009A607B681B6899687B6893F830305A02B5
:103090007B681B680A439A607B681B689A687B6838
:1030A0001B6822F480629A607B681B6899687B6861
:1030B0005B699A027B681B680A439A6000BF1437F9
:1030C000BD465DF8047B7047002301400100000FFE
:1030D00080B584B000AF78607B689B6BFB60FB6859
:1030E0001B6C03F05003002B3CD1FB681B6C43F4BA
:1030F0000072FB681A64FB681B689B6803F040530E
:10310000002B2BD1FB681B7E002B27D1FB681B6893
:10311000DB6A03F47003002B06D0FB681B689B6816
:1031200003F48063002B19D1FB681B685A68FB68A5
:103130001B6822F020025A60FB681B6C23F480722B
:10314000FB681A64FB681B6C03F48053002B05D1E9
:10315000FB681B6C43F00102FB681A64F868FEF719
:10316000ADFD0EE0FB681B6C03F01003002B03D0D9
:10317000F868FFF775FD04E0FB689B6BDB6C786813
:10318000984700BF1037BD4680BD80B584B000AF02
:1031900078607B689B6BFB60F868FFF757FD00BFAA
:1031A0001037BD4680BD80B584B000AF78607B68C5
:1031B0009B6BFB60FB6840221A64FB685B6C43F00E
:1031C0000402FB685A64F868FFF74AFD00BF103735
:1031D000BD4680BD80B485B000AF78607B6803F0E9
:1031E0000703FB600C4BDB68BB60BA684FF6FF035C
:1031F0001340BB60FB681A02BB68134343F0BF6314
:1032000043F40033BB60044ABB68D36000BF14378B
:10321000BD465DF8047B704700ED00E080B400AF70
:10322000044BDB681B0A03F007031846BD465DF834
:10323000047B704700ED00E080B483B000AF03462C
:10324000FB7197F90730002B0BDBFB7903F01F02B2
:10325000074997F907305B09012000FA02F241F8AB
:10326000232000BF0C37BD465DF8047B704700BFCC
:1032700000E100E080B483B000AF03463960FB7129
:1032800097F90730002B0ADB3B68DAB20C4997F953
:1032900007301201D2B20B4483F800230AE03B68E6
:1032A000DAB20849FB7903F00F03043B1201D2B2F2
:1032B0000B441A7600BF0C37BD465DF8047B70479F
:1032C00000E100E000ED00E080B489B000AFF860FC
:1032D000B9607A60FB6803F00703FB61FB69C3F127
:1032E0000703042B28BF0423BB61FB690433062BAF
:1032F00002D9FB69033B00E000237B614FF0FF3202
:10330000BB6902FA03F3DA43BB681A407B699A404F
:103310004FF0FF317B6901FA03F3D9437B680B401F
:10332000134318462437BD465DF8047B7047000000
:1033300080B582B000AF78607B68013BB3F1807FDD
:1033400001D301230FE00A4A7B68013B53600F2140
:103350004FF0FF30FFF78EFF054B00229A60044BC1
:1033600007221A60002318460837BD4680BD00BFFB
:1033700010E000E080B582B000AF78607868FFF7B9
:1033800029FF00BF0837BD4680BD80B586B000AFBD
:103390000346B9607A60FB7300237B61FFF73EFF51
:1033A00078617A68B9687869FFF78EFF024697F905
:1033B0000F3011461846FFF75DFF00BF1837BD46B6
:1033C00080BD80B582B000AF0346FB7197F907302E
:1033D0001846FFF731FF00BF0837BD4680BD80B5F6
:1033E00082B000AF78607868FFF7A2FF0346184606
:1033F0000837BD4680BD000080B586B000AF78605C
:1034000000237B61FFF79EFA38617B68002B01D1B6
:10341000012399E07B68022283F835207B68002233
:1034200083F834207B681B681A687B681B6822F06D
:1034300001021A600FE0FFF785FA02463B69D31AD2
:10344000052B08D97B6820225A657B68032283F804
:103450003520032378E07B681B681B6803F00103B9
:10346000002BE8D17B681B681B687B617A69384B4D
:1034700013407B617B685A687B689B681A437B6852
:10348000DB681A437B681B691A437B685B691A43D4
:103490007B689B691A437B68DB691A437B681B6AFC
:1034A00013437A6913437B617B685B6A042B07D102
:1034B0007B68DA6A7B681B6B13437A6913437B6111
:1034C0007B681B687A691A607B681B685B697B6133
:1034D0007B6923F007037B617B685B6A7A6913432E
:1034E0007B617B685B6A042B17D17B689B6A7A6976
:1034F00013437B617B68DB6A002B0ED0786800F099
:1035000001FB0346002B08D07B6840225A657B688C
:10351000012283F83520012316E07B681B687A6955
:103520005A61786800F0B8FA0346FB607B68DB6D8F
:103530003F229A40FB689A607B6800225A657B684C
:10354000012283F83520002318461837BD4680BD78
:103550003F8010F080B586B000AFF860B9607A6047
:103560003B600023FB75FB689B6D3B61FB6893F838
:103570003430012B01D1022340E0FB68012283F8A3
:103580003420FB6893F83530DBB2012B2FD1FB6878
:10359000022283F83520FB6800225A653B687A686E
:1035A000B968F86800F04AFAFB68DB6D3F229A4080
:1035B0003B699A60FB681B681A68FB681B6842F0ED
:1035C00016021A60FB681B6C002B07D0FB681B6897
:1035D0001A68FB681B6842F008021A60FB681B68E7
:1035E0001A68FB681B6842F001021A6005E0FB687C
:1035F000002283F834200223FB75FB7D1846183720
:10360000BD4680BD80B584B000AF78607B689B6D9F
:10361000FB60FFF797F9B8607B6893F83530DBB251
:10362000022B08D07B6880225A657B68002283F8D1
:103630003420012352E07B681B681A687B681B6892
:1036400022F016021A607B681B685A697B681B6847
:1036500022F080025A617B681B6C002B03D17B68CF
:103660009B6C002B07D07B681B681A687B681B6803
:1036700022F008021A607B681B681A687B681B6866
:1036800022F001021A6013E0FFF75CF90246BB6802
:10369000D31A052B0CD97B6820225A657B6803223C
:1036A00083F835207B68002283F83420032315E05B
:1036B0007B681B681B6803F00103002BE4D17B6867
:1036C000DB6D3F229A40FB689A607B68012283F899
:1036D00035207B68002283F83420002318461037F9
:1036E000BD4680BD80B483B000AF78607B6893F83E
:1036F0003530DBB2022B04D07B6880225A6501236F
:103700000CE07B68052283F835207B681B681A680B
:103710007B681B6822F001021A60002318460C37F0
:10372000BD465DF8047B704780B586B000AF786019
:103730000023BB608E4B1B688E4AA2FB03239B0AAF
:103740007B617B689B6D3B613B691B68FB607B68B1
:10375000DB6D08229A40FB681340002B1AD07B686F
:103760001B681B6803F00403002B13D07B681B68E5
:103770001A687B681B6822F004021A607B68DB6DA4
:1037800008229A403B699A607B685B6D43F00102B6
:103790007B685A657B68DB6D01229A40FB681340A9
:1037A000002B12D07B681B685B6903F08003002B41
:1037B0000BD07B68DB6D01229A403B699A607B6885
:1037C0005B6D43F002027B685A657B68DB6D042207
:1037D0009A40FB681340002B12D07B681B681B6863
:1037E00003F00203002B0BD07B68DB6D04229A40B0
:1037F0003B699A607B685B6D43F004027B685A65A5
:103800007B68DB6D10229A40FB681340002B43D08D
:103810007B681B681B6803F00803002B3CD07B68A7
:10382000DB6D10229A403B699A607B681B681B68BD
:1038300003F48023002B18D07B681B681B6803F4FB
:103840000023002B08D17B681B6C002B24D07B68E5
:103850001B6C786898471FE07B689B6C002B1BD023
:103860007B689B6C7868984716E07B681B681B68D0
:1038700003F48073002B07D17B681B681A687B6890
:103880001B6822F008021A607B681B6C002B03D0B7
:103890007B681B6C786898477B68DB6D20229A40B8
:1038A000FB681340002B00F08F807B681B681B684F
:1038B00003F01003002B00F087807B68DB6D202273
:1038C0009A403B699A607B6893F83530DBB2052BF0
:1038D00036D17B681B681A687B681B6822F0160269
:1038E0001A607B681B685A697B681B6822F080023B
:1038F0005A617B681B6C002B03D17B689B6C002B8F
:1039000007D07B681B681A687B681B6822F0080276
:103910001A607B68DB6D3F229A403B699A607B6846
:10392000012283F835207B68002283F834207B68ED
:103930001B6D002B7ED07B681B6D7868984779E003
:103940007B681B681B6803F48023002B1DD07B68F9
:103950001B681B6803F40023002B0DD17B685B6C94
:10396000002B31D07B685B6C786898472CE000BFF7
:1039700010000020B5814E1B7B68DB6B002B23D031
:103980007B68DB6B786898471EE07B681B681B6868
:1039900003F48073002B0FD17B681B681A687B6867
:1039A0001B6822F010021A607B68012283F8352020
:1039B0007B68002283F834207B68DB6B002B03D00C
:1039C0007B68DB6B786898477B685B6D002B32D037
:1039D0007B685B6D03F00103002B22D07B6805221E
:1039E00083F835207B681B681A687B681B6822F0A7
:1039F00001021A60BB680133BB607A699A4207D33F
:103A00007B681B681B6803F00103002BF2D100E008
:103A100000BF7B68012283F835207B68002283F891
:103A200034207B68DB6C002B05D07B68DB6C78680E
:103A3000984700E000BF1837BD4680BD80B485B010
:103A400000AFF860B9607A603B60FB681B681A6879
:103A5000FB681B6822F480221A60FB681B683A68C6
:103A60005A60FB689B68402B08D1FB681B687A682A
:103A70009A60FB681B68BA68DA6007E0FB681B683D
:103A8000BA689A60FB681B687A68DA6000BF14370E
:103A9000BD465DF8047B704780B485B000AF7860A8
:103AA0007B681B68DBB2103B144AA2FB03231B0993
:103AB000FB60134AFB6813441B781A467B68DA657F
:103AC000FB68032B09D97B681B6823F47F7323F001
:103AD00003031A1D7B689A6507E07B681B6823F463
:103AE0007F7323F003037A6893657B689B6D1846A8
:103AF0001437BD465DF8047B704700BFABAAAAAA85
:103B000010C9000880B485B000AF78600023FB7353
:103B10007B689B6ABB607B689B69002B1FD1BB687D
:103B2000032B56D801A252F823F000BF3D3B0008FA
:103B30004F3B00083D3B0008D33B00087B68DB6A35
:103B400003F08073002B46D00123FB7343E07B68B6
:103B5000DB6AB3F1C07F40D10123FB733DE07B689A
:103B60009B69B3F5005F21D1BB68032B37D801A255
:103B700052F823F0853B00088B3B0008853B00088A
:103B80009D3B00080123FB7330E07B68DB6A03F098
:103B90008073002B25D00123FB7322E07B68DB6A56
:103BA000B3F1C07F1FD10123FB731CE0BB68022B64
:103BB00003D9BB68032B03D018E00123FB7315E086
:103BC0007B68DB6A03F08073002B0ED00123FB734C
:103BD0000BE000BF0AE000BF08E000BF06E000BF46
:103BE00004E000BF02E000BF00E000BFFB7B18461E
:103BF0001437BD465DF8047B704700BF80B489B0C0
:103C000000AF7860396000237B6100233B610023B3
:103C1000BB610023FB6177E10122FB6902FA03F338
:103C20007B613B681B687A6913403B613A697B6939
:103C30009A4240F066813B685B6803F00303012B06
:103C400005D03B685B6803F00303022B30D17B682F
:103C50009B68BB61FB695B00032202FA03F3DB4351
:103C6000BA691340BB613B68DA68FB695B0002FA22
:103C700003F3BA691343BB617B68BA699A607B68D6
:103C80005B68BB610122FB6902FA03F3DB43BA699B
:103C90001340BB613B685B681B0903F00102FB69D1
:103CA00002FA03F3BA691343BB617B68BA695A60CD
:103CB0003B685B6803F00303032B17D07B68DB686A
:103CC000BB61FB695B00032202FA03F3DB43BA69C1
:103CD0001340BB613B689A68FB695B0002FA03F31F
:103CE000BA691343BB617B68BA69DA603B685B6899
:103CF00003F00303022B23D1FB69DA087B68083247
:103D000053F82230BB61FB6903F007039B000F22CD
:103D100002FA03F3DB43BA691340BB613B681A69DB
:103D2000FB6903F007039B0002FA03F3BA6913432C
:103D3000BB61FB69DA087B680832B96943F8221075
:103D40007B681B68BB61FB695B00032202FA03F31B
:103D5000DB43BA691340BB613B685B6803F0030255
:103D6000FB695B0002FA03F3BA691343BB617B682A
:103D7000BA691A603B685B6803F44033002B00F0BB
:103D8000C0800023FB60664B5B6C654A43F4804354
:103D90005364634B5B6C03F48043FB60FB68614AD4
:103DA000FB699B08023352F82330BB61FB6903F0C7
:103DB00003039B000F2202FA03F3DB43BA691340AB
:103DC000BB617B68584A934237D07B68574A93421D
:103DD00031D07B68564A93422BD07B68554A934238
:103DE00025D07B68544A93421FD07B68534A934244
:103DF00019D07B68524A934213D07B68514A934250
:103E00000DD07B68504A934207D07B684F4A93425B
:103E100001D1092312E00A2310E008230EE0072352
:103E20000CE006230AE0052308E0042306E0032350
:103E300004E0022302E0012300E00023FA6902F01B
:103E4000030292009340BA691343BB613549FB6991
:103E50009B080233BA6941F823203D4B9B68BB6144
:103E60003B69DB43BA691340BB613B685B6803F4A1
:103E70008013002B03D0BA693B691343BB61344AFA
:103E8000BB699360324BDB68BB613B69DB43BA695A
:103E90001340BB613B685B6803F40013002B03D045
:103EA000BA693B691343BB61294ABB69D360284B9C
:103EB0005B68BB613B69DB43BA691340BB613B682C
:103EC0005B6803F40033002B03D0BA693B691343EA
:103ED000BB611F4ABB6953601D4B1B68BB613B69DB
:103EE000DB43BA691340BB613B685B6803F4803312
:103EF000002B03D0BA693B691343BB61144ABB6909
:103F00001360FB690133FB61FB690F2B7FF684AE05
:103F100000BF00BF2437BD465DF8047B704700BF7B
:103F20000038024000380140000002400004024016
:103F300000080240000C0240001002400014024041
:103F400000180240001C02400020024000240240F1
:103F5000003C014080B483B000AF78600B467B80AA
:103F600013467B707B78002B03D07A887B689A613C
:103F700003E07B881A047B689A6100BF0C37BD465A
:103F80005DF8047B7047000080B582B000AF00236D
:103F90007B6000233B60204B1B6C1F4A43F0805327
:103FA00013641D4B1B6C03F080533B603B681B4B41
:103FB00001221A60FEF7C6FC786009E0FEF7C2FC39
:103FC00002467B68D31AB3F57A7F01D903231FE039
:103FD000134B5B6803F48033B3F5803FEED1114B94
:103FE00001221A60FEF7AEFC786009E0FEF7AAFC39
:103FF00002467B68D31AB3F57A7F01D9032307E021
:10400000074B5B6803F40033B3F5003FEED10023A8
:1040100018460837BD4680BD0038024040000E42B9
:104020000070004044000E4280B586B000AF78605A
:104030007B68002B01D1012367E27B681B6803F0DA
:104040000103002B75D0884B9B6803F00C03042BF5
:104050000CD0854B9B6803F00C03082B12D1824BCC
:104060005B6803F48003B3F5800F0BD17E4B1B68B4
:1040700003F40033002B5BD07B685B68002B57D1C7
:10408000012342E27B685B68B3F5803F06D1764B43
:104090001B68754A43F4803313601DE07B685B68DE
:1040A000B3F5A02F0CD1704B1B686F4A43F48023EB
:1040B00013606D4B1B686C4A43F4803313600BE054
:1040C000694B1B68684A23F480331360664B1B6896
:1040D000654A23F4802313607B685B68002B13D050
:1040E000FEF730FC386108E0FEF72CFC02463B6925
:1040F000D31A642B01D9032307E25B4B1B6803F43B
:104100000033002BF0D014E0FEF71CFC386108E00F
:10411000FEF718FC02463B69D31A642B01D903232E
:10412000F3E1514B1B6803F40033002BF0D100E0A6
:1041300000BF7B681B6803F00203002B63D04A4B6F
:104140009B6803F00C03002B0BD0474B9B6803F0DC
:104150000C03082B1CD1444B5B6803F48003002B39
:1041600016D1414B1B6803F00203002B05D07B687E
:10417000DB68012B01D00123C7E13B4B1B6823F017
:10418000F8027B681B69DB00374913430B603AE098
:104190007B68DB68002B20D0344B01221A60FEF7CD
:1041A000D1FB386108E0FEF7CDFB02463B69D31A2C
:1041B000022B01D90323A8E12B4B1B6803F0020358
:1041C000002BF0D0284B1B6823F0F8027B681B699A
:1041D000DB00254913430B6015E0244B00221A60D5
:1041E000FEF7B0FB386108E0FEF7ACFB02463B6926
:1041F000D31A022B01D9032387E11B4B1B6803F061
:104200000203002BF0D17B681B6803F00803002B2E
:1042100036D07B685B69002B16D0154B01221A60E3
:10422000FEF790FB386108E0FEF78CFB02463B6925
:10423000D31A022B01D9032367E10B4B5B6F03F009
:104240000203002BF0D01BE0094B00221A60FEF79E
:1042500079FB38610EE0FEF775FB02463B69D31A25
:10426000022B07D9032350E10038024000004742E7
:10427000800E4742884B5B6F03F00203002BEAD1AC
:104280007B681B6803F00403002B00F09780002379
:10429000FB75814B1B6C03F08053002B0FD1002367
:1042A000BB607D4B1B6C7C4A43F0805313647A4B9C
:1042B0001B6C03F08053BB60BB680123FB75774B1D
:1042C0001B6803F48073002B18D1744B1B68734A6E
:1042D00043F480731360FEF735FB386108E0FEF7A6
:1042E00031FB02463B69D31A022B01D903230CE1AF
:1042F0006A4B1B6803F48073002BF0D07B689B68CB
:10430000012B06D1644B1B6F634A43F00103136713
:104310001CE07B689B68052B0CD15F4B1B6F5E4AD2
:1043200043F0040313675C4B1B6F5B4A43F00103CC
:1043300013670BE0584B1B6F574A23F001031367B9
:10434000554B1B6F544A23F0040313677B689B682B
:10435000002B15D0FEF7F6FA38610AE0FEF7F2FA04
:1043600002463B69D31A41F28832934201D90323B2
:10437000CBE0494B1B6F03F00203002BEED014E09F
:10438000FEF7E0FA38610AE0FEF7DCFA02463B6924
:10439000D31A41F28832934201D90323B5E03E4B50
:1043A0001B6F03F00203002BEED1FB7D012B05D127
:1043B000394B1B6C384A23F0805313647B689B692C
:1043C000002B00F0A180344B9B6803F00C03082BFA
:1043D0005CD07B689B69022B41D1314B00221A6073
:1043E000FEF7B0FA386108E0FEF7ACFA02463B6926
:1043F000D31A022B01D9032387E0274B1B6803F054
:104400000073002BF0D17B68DA697B681B6A1A4362
:104410007B685B6A9B011A437B689B6A5B08013B74
:104420001B041A437B68DB6A1B061B4913434B6062
:104430001B4B01221A60FEF785FA386108E0FEF78F
:1044400081FA02463B69D31A022B01D903235CE0AF
:10445000114B1B6803F00073002BF0D054E0104B9D
:1044600000221A60FEF76EFA386108E0FEF76AFA79
:1044700002463B69D31A022B01D9032345E0064BC0
:104480001B6803F00073002BF0D13DE07B689B6953
:10449000012B07D1012338E00038024000700040B2
:1044A000600047421B4B5B68FB607B689B69012B8C
:1044B00028D0FB6803F480027B68DB699A4221D133
:1044C000FB6803F03F027B681B6A9A421AD1FA68C4
:1044D00047F6C07313407A68526A9201934211D131
:1044E000FB6803F440327B689B6A5B08013B1B045A
:1044F0009A4207D1FB6803F070627B68DB6A1B0697
:104500009A4201D0012300E0002318461837BD4627
:1045100080BD00BF0038024080B584B000AF786035
:1045200039607B68002B01D10123CCE0684B1B680C
:1045300003F00F033A689A420CD9654B3A68D2B23D
:104540001A70634B1B6803F00F033A689A4201D05C
:104550000123B8E07B681B6803F00203002B20D026
:104560007B681B6803F00403002B05D0594B9B6844
:10457000584A43F4E05393607B681B6803F00803D8
:10458000002B05D0534B9B68524A43F46043936021
:10459000504B9B6823F0F0027B689B684D491343A6
:1045A0008B607B681B6803F00103002B44D07B68A1
:1045B0005B68012B07D1474B1B6803F40033002BCA
:1045C00019D101237FE07B685B68022B03D07B68F5
:1045D0005B68032B07D13F4B1B6803F00073002B74
:1045E00009D101236FE03B4B1B6803F00203002B52
:1045F00001D1012367E0374B9B6823F003027B68FE
:104600005B68344913438B60FEF79CF9F8600AE05D
:10461000FEF798F90246FB68D31A41F288329342BA
:1046200001D903234FE02B4B9B6803F00C027B68FE
:104630005B689B009A42EBD1254B1B6803F00F038C
:104640003A689A420CD2224B3A68D2B21A70204B86
:104650001B6803F00F033A689A4201D0012332E04D
:104660007B681B6803F00403002B08D0194B9B6880
:1046700023F4E0527B68DB68164913438B607B6848
:104680001B6803F00803002B09D0124B9B6823F42E
:1046900060427B681B69DB000E4913438B6000F0AE
:1046A00021F802460B4B9B681B0903F00F030A49D4
:1046B000CB5C22FA03F3094A1360094B1B681846C6
:1046C000FEF7FCF8002318461037BD4680BD00BF3A
:1046D000003C024000380240F8C8000810000020EA
:1046E000140000202DE9B04F94B000AF00237B648C
:1046F0000023FB6400233B640023BB64794B9B686D
:1047000003F00C03082B0DD0082B00F2E180002BE6
:1047100002D0042B03D0DBE0734BBB64DBE0734BB4
:10472000BB64D8E06F4B5B6803F03F037B646D4B69
:104730005B6803F48003002B63D06A4B5B689B09C2
:104740000022BB63FA63BB6BC3F308033B63002324
:104750007B63D7E90C4522462B464FF000004FF013
:104760000001590141EAD261500102460B4621463F
:10477000511A3961294663EB01037B614FF0000256
:104780004FF00003D7E904AB59468B01514643EA89
:10479000916351468A015146B2EB0108594663EBD9
:1047A00001094FF000024FF000034FEAC90343EA4A
:1047B00058734FEAC80290469946234618EB030304
:1047C000BB602B4649EB0303FB604FF000024FF048
:1047D0000003D7E9024529464B02214643EAD1535B
:1047E00021464A02104619467B6C0022BB62FA62DF
:1047F000D7E90A23FCF758FA02460B461346FB6436
:1048000058E0384B5B689B09002218461146C0F3FC
:1048100008033B6200237B62D7E9088942464B4686
:104820004FF000004FF00001590141EAD261500100
:1048300002460B464146B2EB010A494663EB010BC7
:104840004FF000024FF000034FEA8B1343EA9A63E4
:104850004FEA8A12B2EB0A0463EB0B054FF0000239
:104860004FF00003EB0043EA5473E20014461D4688
:104870004346E3183B604B4645EB03037B604FF038
:1048800000024FF00003D7E9004529468B0221467C
:1048900043EA915321468A02104619467B6C002256
:1048A000BB61FA61D7E90623FCF7FEF902460B4625
:1048B0001346FB640B4B5B681B0C03F003030133D3
:1048C0005B003B64FA6C3B6CB2FBF3F3BB6402E04D
:1048D000054BBB6400BFBB6C18465037BD46BDE8F6
:1048E000B08F00BF003802400024F40000127A00AC
:1048F00080B400AF034B1B681846BD465DF8047BCF
:10490000704700BF1000002080B500AFFFF7F0FF38
:104910000246054B9B689B0A03F007030349CB5CE7
:1049200022FA03F3184680BD0038024008C9000887
:1049300080B500AFFFF7DCFF0246054B9B685B0BC1
:1049400003F007030349CB5C22FA03F3184680BD4A
:104950000038024008C9000880B582B000AF786016
:104960007B68002B01D1012341E07B6893F83D3047
:10497000DBB2002B06D17B68002283F83C207868EC
:10498000FDF7ACFB7B68022283F83D207B681A6848
:104990007B6804331946104600F05EF97B680122FB
:1049A00083F846207B68012283F83E207B68012241
:1049B00083F83F207B68012283F840207B68012236
:1049C00083F841207B68012283F842207B68012222
:1049D00083F843207B68012283F844207B6801220E
:1049E00083F845207B68012283F83D200023184688
:1049F0000837BD4680BD000080B485B000AF786048
:104A00007B6893F83D30DBB2012B01D0012346E0F7
:104A10007B68022283F83D207B681B68234A93420F
:104A200022D07B681B68B3F1804F1DD07B681B6868
:104A30001F4A934218D07B681B681E4A934213D0CA
:104A40007B681B681C4A93420ED07B681B681B4A1C
:104A5000934209D07B681B68194A934204D07B6853
:104A60001B68184A934211D17B681B689B6803F04E
:104A70000703FB60FB68062B10D07B681B681A6875
:104A80007B681B6842F001021A6007E07B681B68C4
:104A90001A687B681B6842F001021A6000231846FE
:104AA0001437BD465DF8047B704700BF000001402D
:104AB0000004004000080040000C004000040140D9
:104AC000004001400018004080B584B000AF78601D
:104AD00039600023FB737B6893F83C30012B01D1D4
:104AE0000223B4E07B68012283F83C207B68022229
:104AF00083F83D207B681B689B68BB60BB6823F024
:104B00007703BB60BB6823F47F43BB607B681B6893
:104B1000BA689A603B681B68B3F5005F3ED0B3F596
:104B2000005F00F28780B3F5805F00F08680B3F508
:104B3000805F7FD8702B1AD0702B7BD8602B50D021
:104B4000602B77D8502B3CD0502B73D8402B58D0AB
:104B5000402B6FD8302B64D0302B6BD8202B60D0FB
:104B6000202B67D8002B5CD0102B5AD062E07B68DA
:104B700018683B6899683B685A683B68DB6800F0D6
:104B800085F97B681B689B68BB60BB6843F0770353
:104B9000BB607B681B68BA689A604FE07B681868E6
:104BA0003B6899683B685A683B68DB6800F06EF9BF
:104BB0007B681B689A687B681B6842F480429A6035
:104BC0003CE07B6818683B6859683B68DB681A46BC
:104BD00000F0E2F87B681B685021184600F03BF9B2
:104BE0002CE07B6818683B6859683B68DB681A46AC
:104BF00000F001F97B681B686021184600F02BF972
:104C00001CE07B6818683B6859683B68DB681A469B
:104C100000F0C2F87B681B684021184600F01BF9C1
:104C20000CE07B681A683B681B681946104600F068
:104C300012F903E00123FB7300E000BF7B6801224F
:104C400083F83D207B68002283F83C20FB7B1846DC
:104C50001037BD4680BD000080B485B000AF7860DD
:104C600039607B681B68FB607B68404A934213D0C5
:104C70007B68B3F1804F0FD07B683D4A93420BD0E5
:104C80007B683C4A934207D07B683B4A934203D0FF
:104C90007B683A4A934208D1FB6823F07003FB60BB
:104CA0003B685B68FA681343FB607B682F4A93425A
:104CB0002BD07B68B3F1804F27D07B682C4A93427E
:104CC00023D07B682B4A93421FD07B682A4A9342A9
:104CD0001BD07B68294A934217D07B68284A9342AD
:104CE00013D07B68274A93420FD07B68264A9342B1
:104CF0000BD07B68254A934207D07B68244A9342B5
:104D000003D07B68234A934208D1FB6823F44073A5
:104D1000FB603B68DB68FA681343FB60FB6823F0C9
:104D200080023B685B691343FB607B68FA681A602A
:104D30003B689A687B68DA623B681A687B689A62AB
:104D40007B680A4A934203D07B680C4A934203D1A2
:104D50003B681A697B681A637B6801225A6100BF4D
:104D60001437BD465DF8047B704700BF000001406A
:104D70000004004000080040000C00400004014016
:104D8000004001400044014000480140001800403C
:104D9000001C00400020004080B487B000AFF860E5
:104DA000B9607A60FB681B6A7B61FB681B6A23F051
:104DB0000102FB681A62FB689B693B613B6923F057
:104DC000F0033B617B681B013A6913433B617B69DC
:104DD00023F00A037B617A69BB6813437B61FB683C
:104DE0003A699A61FB687A691A6200BF1C37BD464E
:104DF0005DF8047B704780B487B000AFF860B9609D
:104E00007A60FB681B6A23F01002FB681A62FB6879
:104E10009B697B61FB681B6A3B617B6923F4704380
:104E20007B617B681B037A6913437B613B6923F0D9
:104E3000A0033B61BB681B013A6913433B61FB68FC
:104E40007A699A61FB683A691A6200BF1C37BD46ED
:104E50005DF8047B704780B485B000AF786039603E
:104E60007B689B68FB60FB6823F07003FB603A681B
:104E7000FB68134343F00703FB607B68FA689A60A2
:104E800000BF1437BD465DF8047B704780B487B01F
:104E900000AFF860B9607A603B60FB689B687B613B
:104EA0007B6923F47F437B613B681A027B681A436A
:104EB000BB6813437A6913437B61FB687A699A6024
:104EC00000BF1C37BD465DF8047B704780B485B0D9
:104ED00000AF786039607B6893F83C30012B01D1DA
:104EE00002235AE07B68012283F83C207B6802227F
:104EF00083F83D207B681B685B68FB607B681B68F0
:104F00009B68BB60FB6823F07003FB603B681B6819
:104F1000FA681343FB607B681B68FA685A607B6819
:104F20001B68214A934222D07B681B68B3F1804FF3
:104F30001DD07B681B681D4A934218D07B681B6894
:104F40001B4A934213D07B681B681A4A93420ED0C7
:104F50007B681B68184A934209D07B681B68174A14
:104F6000934204D07B681B68154A93420CD1BB68FE
:104F700023F08003BB603B685B68BA681343BB6087
:104F80007B681B68BA689A607B68012283F83D20C1
:104F90007B68002283F83C20002318461437BD4666
:104FA0005DF8047B704700BF000001400004004032
:104FB00000080040000C0040000401400040014097
:104FC0000018004080B582B000AF78607B68002B8D
:104FD00001D101233FE07B6893F83D30DBB2002B29
:104FE00006D17B68002283F83C207868FCF7B8FF84
:104FF0007B68242283F83D207B681B68DA687B6825
:105000001B6822F40052DA60786800F0C7FE7B6803
:105010001B681A697B681B6822F490421A617B68DE
:105020001B685A697B681B6822F02A025A617B68F8
:105030001B68DA687B681B6842F40052DA607B68A0
:1050400000221A647B68202283F83D207B6820229E
:1050500083F83E20002318460837BD4680BD80B542
:105060008AB002AFF860B9603B601346FB80002352
:105070007B61FB6893F83D30DBB2202B7CD1BB68B1
:10508000002B02D0FB88002B01D1012375E0FB68C7
:1050900093F83C30012B01D102236EE0FB68012222
:1050A00083F83C20FB6800221A64FB68212283F805
:1050B0003D20FDF747FC7861FB68FA889A84FB681D
:1050C000FA88DA84FB689B68B3F5805F08D1FB68D7
:1050D0001B69002B04D10023FB61BB68BB6103E0AB
:1050E000BB68FB610023BB61FB68002283F83C20A6
:1050F0002AE03B6800937B6900228021F86800F079
:105100001CFC0346002B01D0032336E0FB69002B77
:105110000BD1BB691B881A46FB681B68C2F30802E7
:105120005A60BB690233BB6107E0FB691A78FB6810
:105130001B685A60FB690133FB61FB68DB8C9BB227
:10514000013B9AB2FB68DA84FB68DB8C9BB2002BD4
:10515000CFD13B6800937B6900224021F86800F0C2
:10516000ECFB0346002B01D0032306E0FB68202262
:1051700083F83D20002300E0022318462037BD4677
:1051800080BD000080B58CB000AFF860B9601346F8
:10519000FB80FB6893F83D30DBB2202B65D1BB6808
:1051A000002B02D0FB88002B01D101235EE0FB68BD
:1051B00093F83C30012B01D1022357E0FB68012218
:1051C00083F83C20BA68FB681A62FB68FA889A8404
:1051D000FB68FA88DA84FB6800221A64FB682122E3
:1051E00083F83D20FB685B6B224ADA63FB685B6BEC
:1051F000214A1A64FB685B6B204ADA64FB685B6BCC
:1052000000221A6507F10803FB62FB68586BFB6A12
:105210001968FB681B6804331A46FB88FEF79AF985
:10522000FB681B686FF040021A60FB68002283F87D
:105230003C20FB681B681433BB61BB6953E8003F2B
:105240007B617B6943F08003BB62FB681B6814339E
:10525000BA6A7A623B62396A7A6A41E80023FB6182
:10526000FB69002BE5D1002300E00223184630370C
:10527000BD4680BDF15700088B580008A7580008AC
:1052800080B5BAB000AF78607B681B681B68C7F850
:10529000E4307B681B68DB68C7F8E0307B681B681C
:1052A0005B69C7F8DC300023C7F8D8300023C7F8A3
:1052B000D430D7F8E43003F00F03C7F8D830D7F86C
:1052C000D830002B0FD1D7F8E43003F02003002BA7
:1052D00009D0D7F8E03003F02003002B03D0786822
:1052E00000F0A0FC56E2D7F8D830002B00F0DE80AA
:1052F000D7F8DC3003F00103002B06D1D7F8E030FB
:1053000003F49073002B00F0D180D7F8E43003F061
:105310000103002B0BD0D7F8E03003F48073002B8F
:1053200005D07B681B6C43F001027B681A64D7F8D8
:10533000E43003F00403002B0BD0D7F8DC3003F08B
:105340000103002B05D07B681B6C43F002027B68D5
:105350001A64D7F8E43003F00203002B0BD0D7F81F
:10536000DC3003F00103002B05D07B681B6C43F09D
:1053700004027B681A64D7F8E43003F00803002BBA
:1053800011D0D7F8E03003F02003002B05D1D7F877
:10539000DC3003F00103002B05D07B681B6C43F06D
:1053A00008027B681A647B681B6C002B00F0ED819F
:1053B000D7F8E43003F02003002B08D0D7F8E03012
:1053C00003F02003002B02D0786800F02BFC7B68F0
:1053D0001B685B6903F04003402B0CBF01230023D3
:1053E000DBB2C7F8D4307B681B6C03F00803002BDA
:1053F00003D1D7F8D430002B4FD0786800F033FBBE
:105400007B681B685B6903F04003402B41D17B68DC
:105410001B681433C7F89C30D7F89C3053E8003F22
:10542000C7F89830D7F8983023F04003C7F8D03049
:105430007B681B681433D7F8D020C7F8A820C7F8BA
:10544000A430D7F8A410D7F8A82041E80023C7F863
:10545000A030D7F8A030002BD9D17B689B6B002BF4
:1054600013D07B689B6B7D4A1A657B689B6B1846E3
:10547000FEF738F90346002B16D07B689B6B1B6D3B
:105480007A68926B104698470EE0786800F09AF9B7
:105490000AE0786800F096F906E0786800F092F982
:1054A0007B6800221A6470E100BF6EE17B681B6BB1
:1054B000012B40F04A81D7F8E43003F01003002BB1
:1054C00000F04381D7F8E03003F01003002B00F028
:1054D0003C810023BB607B681B681B68BB607B68EA
:1054E0001B685B68BB60BB687B681B685B6903F01B
:1054F0004003402B40F0B4807B689B6B1B685B686B
:10550000A7F8BE30B7F8BE30002B00F040817B68B2
:105510009B8DB7F8BE209A4280F039817B68B7F83E
:10552000BE20DA857B689B6BDB69B3F5807F00F07A
:1055300088807B681B680C33C7F88830D7F88830C0
:1055400053E8003FC7F88430D7F8843023F48073E1
:10555000C7F8B8307B681B680C33D7F8B820C7F899
:105560009420C7F89030D7F89010D7F8942041E8ED
:105570000023C7F88C30D7F88C30002BD9D17B684A
:105580001B6814337B677B6F53E8003F3B673B6FBF
:1055900023F00103C7F8B4307B681B681433D7F8D5
:1055A000B420C7F88020FB67F96FD7F8802041E866
:1055B0000023BB67BB6F002BE1D17B681B681433F2
:1055C0003B663B6E53E8003FFB65FB6D23F04003F9
:1055D000C7F8B0307B681B681433D7F8B020FA6680
:1055E000BB66B96EFA6E41E800237B667B6E002BCA
:1055F000E3D17B68202283F83E207B6800221A6377
:105600007B681B680C33FB64FB6C53E8003FBB6496
:10561000BB6C23F01003C7F8AC307B681B680C33FD
:10562000D7F8AC20BA657B65796DBA6D41E8002387
:105630003B653B6D002BE3D17B689B6B1846FDF708
:10564000E1FF7B689A8D7B68DB8D9BB2D31A9BB29E
:105650001946786800F0C0F899E000BF2D5B00089B
:105660007B689A8D7B68DB8D9BB2D31AA7F8CE300E
:105670007B68DB8D9BB2002B00F08B80B7F8CE30BF
:10568000002B00F086807B681B680C33BB63BB6B10
:1056900053E8003F7B637B6B23F49073C7F8C830FB
:1056A0007B681B680C33D7F8C8207A643B64396C7C
:1056B0007A6C41E80023FB63FB6B002BE3D17B6832
:1056C0001B6814337B627B6A53E8003F3B623B6A92
:1056D00023F00103C7F8C4307B681B681433D7F884
:1056E000C4203A63FB62F96A3A6B41E80023BB626B
:1056F000BB6A002BE3D17B68202283F83E207B68C5
:1057000000221A637B681B680C333B613B6953E8DA
:10571000003FFB60FB6823F01003C7F8C0307B68D4
:105720001B680C33D7F8C020FA61BB61B969FA690C
:1057300041E800237B617B69002BE3D1B7F8CE30D1
:105740001946786800F048F823E0D7F8E43003F011
:105750008003002B09D0D7F8E03003F08003002B42
:1057600003D0786800F0F6F914E0D7F8E43003F0DD
:105770004003002B0ED0D7F8E03003F04003002B9D
:1057800008D0786800F036FA04E000BF02E000BFFD
:1057900000E000BFE837BD4680BD00BF80B483B0E5
:1057A00000AF786000BF0C37BD465DF8047B7047E2
:1057B00080B483B000AF786000BF0C37BD465DF8A1
:1057C000047B704780B483B000AF786000BF0C37B3
:1057D000BD465DF8047B704780B483B000AF78604D
:1057E0000B467B8000BF0C37BD465DF8047B7047DD
:1057F00080B590B000AF78607B689B6BFB637B6883
:105800001B681B6803F48073002B37D1FB6B0022ED
:10581000DA84FB6B1B6814337B627B6A53E8003FBE
:105820003B623B6A23F08003BB63FB6B1B68143352
:10583000BA6B3A63FB62F96A3A6B41E80023BB62D8
:10584000BB6A002BE5D1FB6B1B680C333B613B69EA
:1058500053E8003FFB60FB6843F040037B63FB6B56
:105860001B680C337A6BFA61BB61B969FA6941E86C
:1058700000237B617B69002BE5D102E0F86BFCF72C
:1058800033FA00BF4037BD4680BD80B584B000AF5D
:1058900078607B689B6BFB60F868FFF77FFF00BF59
:1058A0001037BD4680BD80B584B000AF786000235E
:1058B000FB607B689B6BBB60BB681B685B6903F02C
:1058C0008003802B0CBF01230023DBB2FB60BB688D
:1058D00093F83D30DBB2212B08D1FB68002B05D0BB
:1058E000BB680022DA84B86800F095F8BB681B68D2
:1058F0005B6903F04003402B0CBF01230023DBB2A4
:10590000FB60BB6893F83E30DBB2222B08D1FB680A
:10591000002B05D0BB680022DA85B86800F0A3F838
:10592000BB681B6C43F01002BB681A64B868FFF7D1
:1059300049FF00BF1037BD4680BD80B590B000AFB5
:10594000F860B9603B601346FB7150E0BB6CB3F18B
:10595000FF3F4CD0BB6C002B07D0FCF7F3FF024697
:105960003B68D31ABA6C9A4241D2FB681B680C336D
:10597000BB62BB6A53E8003F7B627B6A23F4D0734F
:10598000FB63FB681B680C33FA6B7A633B63396B10
:105990007A6B41E80023FB62FB6A002BE5D1FB68D0
:1059A0001B6814337B617B6953E8003F3B613B69B3
:1059B00023F00103BB63FB681B681433BA6B3A62C4
:1059C000FB61F9693A6A41E80023BB61BB69002BBE
:1059D000E5D1FB68202283F83D20FB68202283F874
:1059E0003E20FB68002283F83C2003230FE0FB6885
:1059F0001B681A68BB681340BA689A420CBF01233F
:105A00000023DBB21A46FB799A429FD00023184646
:105A10004037BD4680BD80B489B000AF78607B68F8
:105A20001B680C33FB60FB6853E8003FBB60BB683E
:105A300023F0C003FB617B681B680C33FA69BA6111
:105A40007B617969BA6941E800233B613B69002BBE
:105A5000E5D17B68202283F83D2000BF2437BD4676
:105A60005DF8047B704780B495B000AF78607B68C8
:105A70001B680C337B637B6B53E8003F3B633B6BE2
:105A800023F49073FB647B681B680C33FA6C3A64F4
:105A9000FB63F96B3A6C41E80023BB63BB6B002BE3
:105AA000E5D17B681B6814333B623B6A53E8003FD7
:105AB000FB61FB6923F00103BB647B681B68143343
:105AC000BA6CFA62BB62B96AFA6A41E800237B6287
:105AD0007B6A002BE5D17B681B6B012B19D17B689E
